:020000040000FA
:100000000C945D000C948B030C9464030C94850099
:100010000C9485000C9485000C9485000C9485004C
:100020000C9485000C9485000C9485000C9485003C
:100030000C9485000C9485000C9485000C9485002C
:100040000C941A030C9485000C94E8020C94C202E0
:100050000C9485000C9485000C9485000C9485000C
:100060000C9485000C9485000000000024002700FB
:100070002A0000000000250028002B0004040404CE
:100080000404040402020202020203030303030342
:10009000010204081020408001020408102001021F
:1000A00004081020000000080002010000030407FB
:1000B0000000000000000000560611241FBECFEF14
:1000C000D8E0DEBFCDBF11E0A0E0B1E0E0E3F2E1B7
:1000D00002C005900D92A233B107D9F721E0A2E347
:1000E000B1E001C01D92A03FB207E1F710E0CDE5FD
:1000F000D0E004C02197FE010E941009CC35D10741
:10010000C9F70E94B2030C9416090C940000EAEAA5
:10011000F0E02491E6E9F0E09491E2E8F0E0E49187
:10012000EE23C9F0222339F0233001F1A8F4213065
:1001300019F1223029F1F0E0EE0FFF1FEE58FF4FCA
:10014000A591B4912FB7F894EC91811126C09095A8
:100150009E239C932FBF08952730A9F02830C9F023
:10016000243049F7209180002F7D03C0209180002A
:100170002F7720938000DFCF24B52F7724BDDBCFEE
:1001800024B52F7DFBCF2091B0002F772093B000B6
:10019000D2CF2091B0002F7DF9CF9E2BDACFCF9216
:1001A000DF92EF92FF922FB7F89460914301709124
:1001B000440180914501909146012FBF0E949D0707
:1001C0006B017C012091360130913701409138015B
:1001D000509139010E948306C0923601D0923701B6
:1001E000E0923801F092390120E030E04AE754E42F
:1001F0000E94F5069B01AC010E9484069B01AC01A4
:1002000060E070E080E89FE30E94F50620E030E0C7
:1002100040E752E40E9454086B017C016091340174
:1002200070913501072E000C880B990B0E949F07D7
:100230009B01AC01C701B6010E9484060E946707BA
:1002400070933501609334018091320190913301B4
:1002500001969093330180933201FF90EF90DF90ED
:10026000CF900895AF92BF92CF92DF92EF92FF921C
:100270000F931F93CF93DF936C017B018B01040FCE
:10028000151FEB015E01AE18BF08C017D10759F06A
:100290006991D601ED91FC910190F081E02DC601AC
:1002A0000995892B79F7C501DF91CF911F910F91A6
:1002B000FF90EF90DF90CF90BF90AF900895FC013A
:1002C000538D448D252F30E0842F90E0821B930BBB
:1002D000541710F0CF96089501970895FC01918D61
:1002E000828D981761F0A28DAE0FBF2FB11D5D9664
:1002F0008C91928D9F5F9F73928F90E008958FEF06
:100300009FEF0895FC01918D828D981731F0828DB9
:10031000E80FF11D858D90E008958FEF9FEF089510
:10032000FC01918D228D892F90E0805C9F4F821B74
:1003300091098F739927089583E591E00E949001B8
:1003400021E0892B09F420E0822F089580E090E0DD
:10035000892B29F00E949C0181110C9400000895C2
:10036000FC01A48DA80FB92FB11DA35ABF4F2C912A
:10037000848D90E001968F739927848FA689B78921
:100380002C93A089B1898C91837080648C93938D18
:10039000848D981306C00288F389E02D80818F7DBB
:1003A00080830895EF92FF920F931F93CF93DF9373
:1003B000EC0181E0888F9B8D8C8D98131AC0E889A1
:1003C000F989808185FF15C09FB7F894EE89FF8970
:1003D0006083E889F98980818370806480839FBF0E
:1003E00081E090E0DF91CF911F910F91FF90EF900E
:1003F0000895F62E0B8D10E00F5F1F4F0F7311271E
:10040000E02E8C8D8E110CC00FB607FCFACFE88958
:10041000F989808185FFF5CFCE010E94B001F1CF2F
:10042000EB8DEC0FFD2FF11DE35AFF4FF0829FB7CC
:10043000F8940B8FEA89FB8980818062CFCFCF93BC
:10044000DF93EC01888D8823B9F0AA89BB89E889FC
:10045000F9898C9185FD03C0808186FD0DC00FB6A2
:1004600007FCF7CF8C9185FFF2CF808185FFEDCF20
:10047000CE010E94B001E9CFDF91CF910895CF93D3
:10048000DF9390E0FC01E057FF4F249184589F4F89
:10049000FC0184918823D1F090E0880F991FFC0122
:1004A000E859FF4FA591B491FC01EE58FF4FC5915B
:1004B000D49161110EC09FB7F8948C91E22FE09512
:1004C0008E238C932881E223E8839FBFDF91CF9115
:1004D00008958FB7F894EC91E22BEC938FBFF6CF91
:1004E0000895FC0101900020E9F73197AF01481B06
:1004F000590BBC0183E591E00C9432018F929F92DD
:10050000AF92BF920F931F93CF93DF93CDB7DEB718
:10051000A1970FB6F894DEBF0FBECDBF19A242302F
:1005200008F44AE08E010F5D1F4F842E912CB12CF0
:10053000A12CA50194010E94DA08E62FB901CA0195
:10054000EA30F4F4E05DD801EE938D01232B242BE7
:10055000252B79F790E080E0109719F0CD010E94EB
:100560007102A1960FB6F894DEBF0FBECDBFDF912A
:10057000CF911F910F91BF90AF909F908F90089552
:10058000E95CE1CF1F920F920FB60F9211242F93C7
:100590003F934F935F936F937F938F939F93AF930B
:1005A000BF93EF93FF9383E591E00E94B001FF9129
:1005B000EF91BF91AF919F918F917F916F915F91DB
:1005C0004F913F912F910F900FBE0F901F90189554
:1005D0001F920F920FB60F9211242F938F939F9318
:1005E000EF93FF93E0916301F09164018081E091CA
:1005F0006901F0916A0182FD1BC0908180916C01BC
:100600008F5F8F7320916D01821741F0E0916C0133
:10061000F0E0ED5AFE4F958F80936C01FF91EF91C2
:100620009F918F912F910F900FBE0F901F90189553
:100630008081F4CF1F920F920FB60F9211242F9347
:100640003F938F939F93AF93BF938091430190917A
:100650004401A0914501B091460130913E0123E053
:10066000230F2D3758F50196A11DB11D20933E0192
:100670008093430190934401A0934501B0934601B8
:1006800080913A0190913B01A0913C01B0913D01D4
:100690000196A11DB11D80933A0190933B01A09357
:1006A0003C01B0933D01BF91AF919F918F913F91DC
:1006B0002F910F900FBE0F901F90189526E8230FD3
:1006C0000296A11DB11DD2CF1F920F920FB60F92AD
:1006D00011242F933F934F935F936F937F938F9347
:1006E0009F93AF93BF93EF93FF93E0910201F0913B
:1006F00003010995FF91EF91BF91AF919F918F9168
:100700007F916F915F914F913F912F910F900FBE0D
:100710000F901F9018951F920F920FB60F921124F1
:100720002F933F934F935F936F937F938F939F93F9
:10073000AF93BF93EF93FF93E0910001F09101011C
:100740000995FF91EF91BF91AF919F918F917F910B
:100750006F915F914F913F912F910F900FBE0F902E
:100760001F901895789484B5826084BD84B58160AB
:1007700084BD85B5826085BD85B5816085BD80916C
:100780006E00816080936E001092810080918100E4
:1007900082608093810080918100816080938100DC
:1007A000809180008160809380008091B10084609E
:1007B0008093B1008091B00081608093B0008091FF
:1007C0007A00846080937A0080917A0082608093BE
:1007D0007A0080917A00816080937A0080917A001B
:1007E000806880937A001092C100E0916301F091DB
:1007F000640182E08083E0915F01F09160011082EA
:10080000E0916101F09162018FEC808310926B01A5
:10081000E0916701F091680186E08083E0916501D5
:10082000F0916601808180618083E0916501F091A3
:100830006601808188608083E0916501F0916601A6
:10084000808180688083E0916501F09166018081FC
:100850008F7D808386E191E00E94710282E291E0C7
:100860000E94710260E082E00E943F0261E085E048
:100870000E943F0261E086E00E943F0260E08EE05D
:100880000E943F0260E08FE00E943F028FEC90E008
:100890009093010180930001809169008C7F8260B8
:1008A00080936900E89A80E4382E0AEA10E0C0E0FC
:1008B000D0E08091410190914201019690934201D4
:1008C0008093410130927C0080917A008064809313
:1008D0007A0080917A0086FDFCCF9091780080911B
:1008E000790089279827892720913F01309140017D
:1008F000820F931F9093400180933F0160914101CB
:10090000709142016E31710524F10E94C608072ED4
:10091000000C880B990B0E949F0721E136E34CEBFA
:100920005DEB0E9454082CEE31E94CEA53E40E943E
:10093000840660934F01709350018093510190930E
:100940005201109242011092410110924001109206
:100950003F01C0904F01D0905001E0905101F090C4
:100960005201A7019601C701B6010E94C108882360
:1009700009F4A3C085E291E00E94710282E291E055
:100980000E94710240904F015090500160905101BF
:10099000709052012FB7F894609143017091440117
:1009A00080914501909146012FBF0E949D076B01E8
:1009B0007C0120914B0130914C0140914D015091AF
:1009C0004E010E9483064B015C01C0924B01D09204
:1009D0004C01E0924D01F0924E01A301920160E0C2
:1009E00070E085E993E40E9483066B017C0120910D
:1009F0004701309148014091490150914A010E94BC
:100A00008306A50194010E94F5062B013C01C092CA
:100A10004701D0924801E0924901F0924A01A701B2
:100A20009601C501B4010E94540820E030E0A901FC
:100A30000E9454084B015C0120E030E040EA51E4A0
:100A4000C701B6010E9454089B01AC01C501B40165
:100A50000E9484066B017C0120E030E0A901C30103
:100A6000B2010E9454089B01AC01C701B6010E946B
:100A700084066B017C0120E030E0A9010E944F0850
:100A800018160CF000C120E030E04FE753E4C70136
:100A9000B6010E94F00687FFF6C0C701B6010E94AA
:100AA00067076B015B0161E086E00E943F02C114B1
:100AB000D10409F094C080E097C046015701E89442
:100AC000B7F82FEF3FEF4FE75FE7C501B4010E9492
:100AD000C10881110DC02FEF3FEF4FE75FE7C50160
:100AE000B4010E94F00618161CF489E291E044CF8C
:100AF0002FEF3FEF4FE75FE4C701B6010E944F08B9
:100B000018161CF48DE291E037CF2FEF3FEF4FE73F
:100B10005FECC701B6010E94F00687FDF3CF20E02D
:100B200030E0A901C701B6010E94F00687FF09C0A5
:100B30006DE283E591E00E94D201F7FAF094F7F8B4
:100B4000F0942AE037ED43EA5BE3C701B6010E9467
:100B500084064B015C010E946E076B017C010E94C0
:100B60009D079B01AC01C501B4010E9483064B01A6
:100B70005C014AE0C701B6010E947E026EE283E595
:100B800091E00E94D20120E030E040E251E4C50152
:100B9000B4010E9454084B015C010E946E076B0176
:100BA000F12CE12C4AE0C701B6010E947E02C70188
:100BB000B6010E949D079B01AC01C501B4010E94D2
:100BC000830620E030E040E251E40E9454080E9495
:100BD0006E0790E080E04AE00E947E02CFCE8FEF69
:100BE000C816D10421F481E00E94870022C0F801D8
:100BF0008491833071F148F48130B9F0823021F171
:100C0000F0E8AF16B1047CF756CF873061F1883039
:100C100091F18430A9F780918000806280938000F8
:100C2000D0928B00C0928A0004C084B5806884BDD5
:100C3000C7BC209709F43DCE0E949C01882309F48B
:100C400038CE0E94000035CE84B5806284BDC8BC19
:100C5000F0CF80918000806880938000D0928900DE
:100C6000C0928800E6CF8091B00080688093B00089
:100C7000C092B300DECF8091B00080628093B0005C
:100C8000C092B400D6CF20E030E04FE753E4C70174
:100C9000B6010E944F0861E0181624F486E00E9415
:100CA0003F02A1CF86E00E943F0205CFE3E5F1E0DD
:100CB0001382128288EE93E0A0E0B0E084839583F3
:100CC000A683B78388E091E09183808385EC90E0F0
:100CD0009587848784EC90E09787868780EC90E006
:100CE000918B808B81EC90E0938B828B82EC90E0F7
:100CF000958B848B86EC90E0978B868B118E128E71
:100D0000138E148E08955058BB27AA270E949B0665
:100D10000C9415080E94070838F00E940E0820F075
:100D200039F49F3F19F426F40C9404080EF4E0956E
:100D3000E7FB0C94FE07E92F0E94260858F3BA1728
:100D4000620773078407950720F079F4A6F50C94E1
:100D500048080EF4E0950B2EBA2FA02D0B01B90117
:100D600090010C01CA01A0011124FF27591B99F021
:100D7000593F50F4503E68F11A16F040A22F232F2D
:100D8000342F4427585FF3CF469537952795A7957D
:100D9000F0405395C9F77EF41F16BA0B620B730B24
:100DA000840BBAF09150A1F0FF0FBB1F661F771F95
:100DB000881FC2F70EC0BA0F621F731F841F48F44A
:100DC000879577956795B795F7959E3F08F0B0CFD3
:100DD0009395880F08F09927EE0F979587950895BA
:100DE0000E94DA0708F481E008950E9409070C9434
:100DF00015080E940E0858F00E94070840F029F4D8
:100E00005F3F29F00C94FE0751110C9449080C9493
:100E100004080E94260868F39923B1F3552391F33F
:100E2000951B550BBB27AA2762177307840738F059
:100E30009F5F5F4F220F331F441FAA1FA9F335D0B6
:100E40000E2E3AF0E0E832D091505040E695001C6A
:100E5000CAF72BD0FE2F29D0660F771F881FBB1F24
:100E6000261737074807AB07B0E809F0BB0B802D02
:100E7000BF01FF2793585F4F3AF09E3F510578F02E
:100E80000C94FE070C9449085F3FE4F3983ED4F3BA
:100E9000869577956795B795F7959F5FC9F7880F02
:100EA000911D9695879597F90895E1E0660F771F54
:100EB000881FBB1F621773078407BA0720F0621BE5
:100EC000730B840BBA0BEE1F88F7E09508950E9410
:100ED0006E076894B1110C94490808950E942E0879
:100EE00088F09F5798F0B92F9927B751B0F0E1F0EB
:100EF000660F771F881F991F1AF0BA95C9F714C09B
:100F0000B13091F00E944808B1E008950C9448086F
:100F1000672F782F8827B85F39F0B93FCCF38695D3
:100F200077956795B395D9F73EF490958095709530
:100F300061957F4F8F4F9F4F0895E89409C097FBAD
:100F40003EF490958095709561957F4F8F4F9F4FA0
:100F50009923A9F0F92F96E9BB279395F6958795E4
:100F600077956795B795F111F8CFFAF4BB0F11F4A7
:100F700060FF1BC06F5F7F4F8F4F9F4F16C088234E
:100F800011F096E911C0772321F09EE8872F762F84
:100F900005C0662371F096E8862F70E060E02AF0C5
:100FA0009A95660F771F881FDAF7880F96958795B1
:100FB00097F90895990F0008550FAA0BE0E8FEEF86
:100FC00016161706E807F907C0F012161306E4070D
:100FD000F50798F0621B730B840B950B39F40A2606
:100FE00061F0232B242B252B21F408950A2609F4E4
:100FF000A140A6958FEF811D811D089597F99F67E8
:1010000080E870E060E008959FEF80EC0895002490
:101010000A941616170618060906089500240A945D
:1010200012161306140605060895092E0394000CE3
:1010300011F4882352F0BB0F40F4BF2B11F460FF72
:1010400004C06F5F7F4F8F4F9F4F089557FD90589B
:10105000440F551F59F05F3F71F04795880F97FB7C
:10106000991F61F09F3F79F0879508951216130636
:101070001406551FF2CF4695F1DF08C01616170665
:101080001806991FF1CF869571056105089408959A
:10109000E894BB2766277727CB0197F908950E942C
:1010A000DA0708F48FEF08950E9467080C9415087A
:1010B0000E94070838F00E940E0820F0952311F0D6
:1010C0000C94FE070C94040811240C9449080E9407
:1010D000260870F3959FC1F3950F50E0551F629F4E
:1010E000F001729FBB27F00DB11D639FAA27F00D81
:1010F000B11DAA1F649F6627B00DA11D661F829FA8
:101100002227B00DA11D621F739FB00DA11D621F8C
:10111000839FA00D611D221F749F3327A00D611DA9
:10112000231F849F600D211D822F762F6A2F11248B
:101130009F5750409AF0F1F088234AF0EE0FFF1FBE
:10114000BB1F661F771F881F91505040A9F79E3F15
:10115000510580F00C94FE070C9449085F3FE4F3BE
:10116000983ED4F3869577956795B795F795E7956B
:101170009F5FC1F7FE2B880F911D9695879597F974
:1011800008950E94DA07880B990B089597FB072EA4
:1011900016F4009407D077FD09D00E94FC0807FCE4
:1011A00005D03EF4909581959F4F08957095619577
:1011B0007F4F0895A1E21A2EAA1BBB1BFD010DC093
:1011C000AA1FBB1FEE1FFF1FA217B307E407F507F7
:1011D00020F0A21BB30BE40BF50B661F771F881FD3
:1011E000991F1A9469F760957095809590959B0169
:1011F000AC01BD01CF010895AA1BBB1B51E107C083
:10120000AA1FBB1FA617B70710F0A61BB70B881F96
:10121000991F5A95A9F780959095BC01CD01089525
:10122000EE0FFF1F0590F491E02D0994F894FFCF85
:101230007002700200000000D20132015F011F0243
:1012400090016E01820148656C6C6F20576F726C63
:1012500064000D0A006E616E00696E66006F76664E
:0212600000008C
:107E0000112484B714BE81FFF0D085E080938100F7
:107E100082E08093C00088E18093C10086E0809377
:107E2000C20080E18093C4008EE0C9D0259A86E02C
:107E300020E33CEF91E0309385002093840096BBD3
:107E4000B09BFECF1D9AA8958150A9F7CC24DD24C4
:107E500088248394B5E0AB2EA1E19A2EF3E0BF2EE7
:107E6000A2D0813461F49FD0082FAFD0023811F036
:107E7000013811F484E001C083E08DD089C08234E0
:107E800011F484E103C0853419F485E0A6D080C0E4
:107E9000853579F488D0E82EFF2485D0082F10E0AE
:107EA000102F00270E291F29000F111F8ED06801E7
:107EB0006FC0863521F484E090D080E0DECF843638
:107EC00009F040C070D06FD0082F6DD080E0C81688
:107ED00080E7D80618F4F601B7BEE895C0E0D1E017
:107EE00062D089930C17E1F7F0E0CF16F0E7DF06D8
:107EF00018F0F601B7BEE89568D007B600FCFDCFD4
:107F0000A601A0E0B1E02C9130E011968C91119780
:107F100090E0982F8827822B932B1296FA010C0160
:107F200087BEE89511244E5F5F4FF1E0A038BF0790
:107F300051F7F601A7BEE89507B600FCFDCF97BE46
:107F4000E89526C08437B1F42ED02DD0F82E2BD052
:107F50003CD0F601EF2C8F010F5F1F4F84911BD097
:107F6000EA94F801C1F70894C11CD11CFA94CF0C13
:107F7000D11C0EC0853739F428D08EE10CD085E9AC
:107F80000AD08FE07ACF813511F488E018D01DD067
:107F900080E101D065CF982F8091C00085FFFCCF94
:107FA0009093C60008958091C00087FFFCCF809118
:107FB000C00084FD01C0A8958091C6000895E0E648
:107FC000F0E098E1908380830895EDDF803219F02E
:107FD00088E0F5DFFFCF84E1DECF1F93182FE3DFCA
:107FE0001150E9F7F2DF1F91089580E0E8DFEE27F6
:047FF000FF270994CA
:027FFE00040479
:00000001FF
