:100000000C94DA000C94FB030C94D4030C940201BE
:100010000C9402010C9402010C9402010C94020154
:100020000C9402010C9402010C9402010C94020144
:100030000C9402010C9402010C9402010C94020134
:100040000C948A030C9402010C9458030C94320310
:100050000C9402010C9402010C9402010C94020114
:100060000C9402010C94020100407A10F35A00A093
:10007000724E18090010A5D4E80000E87648170071
:1000800000E40B54020000CA9A3B000000E1F505B1
:10009000000080969800000040420F000000A086FB
:1000A00001000000102700000000E803000000002D
:1000B0006400000000000A000000000001000000D1
:1000C00000002C76D888DC674F0823DFC1DFAE59EB
:1000D000E1B1B796E5E3E453C63AE651997696E87E
:1000E000E6C28426EB898C9B62ED407C6FFCEFBC02
:1000F0009C9F40F2BAA56FA5F490055A2AF75C932D
:100100006B6CF9676DC11BFCE0E40D47FEF520E662
:10011000B500D0ED902E0300943577050080841E45
:10012000080000204E0A000000C80C333333330FA0
:10013000986E12831141EF8D2114893BE65516CF3D
:10014000FEE6DB18D1844B381BF77C1D901DA4BB49
:10015000E424203284725E228100C9F124ECA1E5FE
:100160003D2700000000240027002A0000000000B6
:10017000250028002B0004040404040404040202E3
:100180000202020203030303030301020408102016
:100190004080010204081020010204081020000021
:1001A0000008000201000003040700000000000036
:1001B0000000120711241FBECFEFD8E0DEBFCDBF75
:1001C00021E0A8E3B1E001C01D92AA3FB207E1F728
:1001D00011E0A0E0B1E0E6E5FCE102C005900D927F
:1001E000A833B107D9F710E0CAEDD0E004C02197D9
:1001F000FE010E94310CC93DD107C9F70E942204BB
:100200000C94290E0C940000E4EAF1E02491E0E95A
:10021000F1E09491ECE7F1E0E491EE23C9F02223C0
:1002200039F0233001F1A8F4213019F1223029F1FD
:10023000F0E0EE0FFF1FE459FE4FA591B4912FB7E8
:10024000F894EC91811126C090959E239C932FBF2A
:1002500008952730A9F02830C9F0243049F72091BB
:1002600080002F7D03C0209180002F772093800095
:10027000DFCF24B52F7724BDDBCF24B52F7DFBCF77
:100280002091B0002F772093B000D2CF2091B00002
:100290002F7DF9CF9E2BDACFAF92BF92CF92DF9214
:1002A000EF92FF920F931F93CF93DF936C017B012B
:1002B0008B01040F151FEB015E01AE18BF08C017BC
:1002C000D10759F06991D601ED91FC910190F0812F
:1002D000E02DC6010995892B79F7C501DF91CF91F2
:1002E0001F910F91FF90EF90DF90CF90BF90AF9054
:1002F0000895FC01538D448D252F30E0842F90E02C
:10030000821B930B541710F0CF9608950197089510
:10031000FC01918D828D981761F0A28DAE0FBF2FD9
:10032000B11D5D968C91928D9F5F9F73928F90E02F
:1003300008958FEF9FEF0895FC01918D828D98179E
:1003400031F0828DE80FF11D858D90E008958FEFDB
:100350009FEF0895FC01918D228D892F90E0805CA4
:100360009F4F821B91098F739927089589E591E02A
:100370000E94AA0121E0892B09F420E0822F089530
:1003800080E090E0892B29F00E94B60181110C9445
:1003900000000895FC01A48DA80FB92FB11DA35A28
:1003A000BF4F2C91848D90E001968F739927848F95
:1003B000A689B7892C93A089B1898C9183708064B8
:1003C0008C93938D848D981306C00288F389E02D59
:1003D00080818F7D80830895EF92FF920F931F930A
:1003E000CF93DF93EC0181E0888F9B8D8C8D9813E8
:1003F0001AC0E889F989808185FF15C09FB7F894F4
:10040000EE89FF896083E889F9898081837080643F
:1004100080839FBF81E090E0DF91CF911F910F918A
:10042000FF90EF900895F62E0B8D10E00F5F1F4F99
:100430000F731127E02E8C8D8E110CC00FB607FCA8
:10044000FACFE889F989808185FFF5CFCE010E9436
:10045000CA01F1CFEB8DEC0FFD2FF11DE35AFF4FD9
:10046000F0829FB7F8940B8FEA89FB8980818062C4
:10047000CFCFCF93DF93EC01888D8823B9F0AA8981
:10048000BB89E889F9898C9185FD03C0808186FD4F
:100490000DC00FB607FCF7CF8C9185FFF2CF80819E
:1004A00085FFEDCFCE010E94CA01E9CFDF91CF9148
:1004B0000895CF93DF9390E0FC01E657FE4F24911F
:1004C0008A589E4FFC0184918823D1F090E0880FD8
:1004D000991FFC01EE59FE4FA591B491FC01E4591E
:1004E000FE4FC591D49161110EC09FB7F8948C91C5
:1004F000E22FE0958E238C932881E223E8839FBF2F
:10050000DF91CF9108958FB7F894EC91E22BEC93A3
:100510008FBFF6CF3FB7F89480914101909142018F
:10052000A0914301B091440126B5A89B05C02F3F7F
:1005300019F00196A11DB11D3FBFBA2FA92F982F09
:100540008827BC01CD01620F711D811D911D42E004
:10055000660F771F881F991F4A95D1F70895089550
:10056000CF92DF92EF92FF922FB7F89460914901FA
:1005700070914A0180914B0190914C012FBF0E94D4
:1005800099096B017C0120913C0130913D01409122
:100590003E0150913F010E94EF0AC0923C01D0926F
:1005A0003D01E0923E01F0923F0120E030E04AE759
:1005B00054E40E945C0B9B01AC010E94F00A9B0179
:1005C000AC0160E070E080E89FE30E945C0B20E0FB
:1005D00030E040E752E40E94FA096B017C0160912F
:1005E0003A0170913B01072E000C880B990B0E9479
:1005F0009B099B01AC01C701B6010E94F00A0E9451
:10060000CE0B70933B0160933A0180913801909139
:10061000390101969093390180933801FF90EF9052
:10062000DF90CF90089542E050E060E271E089E50C
:1006300091E00C944C01CF93DF93FC0101900020DA
:10064000E9F73197AF01481B590BBC0189E591E0EF
:100650000E944C01EC010E9413038C0F9D1FDF913F
:10066000CF9108951F920F920FB60F9211242F93DE
:100670003F934F935F936F937F938F939F93AF932A
:10068000BF93EF93FF9389E591E00E94CA01FF9128
:10069000EF91BF91AF919F918F917F916F915F91FA
:1006A0004F913F912F910F900FBE0F901F90189573
:1006B0001F920F920FB60F9211242F938F939F9337
:1006C000EF93FF93E0916901F0916A018081E091DD
:1006D0006F01F091700182FD1BC0908180917201C9
:1006E0008F5F8F7320917301821741F0E091720147
:1006F000F0E0E75AFE4F958F80937201FF91EF91E2
:100700009F918F912F910F900FBE0F901F90189572
:100710008081F4CF1F920F920FB60F9211242F9366
:100720003F938F939F93AF93BF9380914901909193
:100730004A01A0914B01B0914C013091400123E05E
:10074000230F2D3758F50196A11DB11D20934001AF
:100750008093490190934A01A0934B01B0934C01BF
:100760008091410190914201A0914301B0914401D7
:100770000196A11DB11D8093410190934201A09368
:100780004301B0934401BF91AF919F918F913F91ED
:100790002F910F900FBE0F901F90189526E8230FF2
:1007A0000296A11DB11DD2CF1F920F920FB60F92CC
:1007B00011242F933F934F935F936F937F938F9366
:1007C0009F93AF93BF93EF93FF93E0910201F0915A
:1007D00003010995FF91EF91BF91AF919F918F9187
:1007E0007F916F915F914F913F912F910F900FBE2D
:1007F0000F901F9018951F920F920FB60F92112411
:100800002F933F934F935F936F937F938F939F9318
:10081000AF93BF93EF93FF93E0910001F09101013B
:100820000995FF91EF91BF91AF919F918F917F912A
:100830006F915F914F913F912F910F900FBE0F904D
:100840001F901895CF93DF93CDB7DEB7A5970FB65E
:10085000F894DEBF0FBECDBF789484B5826084BDAE
:1008600084B5816084BD85B5826085BD85B58160B4
:1008700085BD80916E00816080936E001092810032
:1008800080918100826080938100809181008160ED
:1008900080938100809180008160809380008091AE
:1008A000B10084608093B1008091B000816080933A
:1008B000B00080917A00846080937A0080917A0001
:1008C000826080937A0080917A00816080937A00C0
:1008D00080917A00806880937A001092C100E09144
:1008E0006901F0916A0182E08083E0916501F091F5
:1008F00066011082E0916701F09168018FEC8083BE
:1009000010927101E0916D01F0916E0186E080839B
:10091000E0916B01F0916C01808180618083E091B6
:100920006B01F0916C01808188608083E0916B01A4
:10093000F0916C01808180688083E0916B01F0917F
:100940006C0180818F7D808383E291E00E941B0394
:1009500060E082E00E94590261E085E00E94590255
:1009600061E086E00E94590260E08EE00E94590238
:1009700060E08FE00E94590280EB92E090930101C9
:1009800080930001809169008C7F82608093690070
:10099000E89A90E0292E90E0392E89E591E00E94B6
:1009A000AA01892B09F44DC089E591E00E948801D4
:1009B000813709F070C120E030E040E05FE36091F2
:1009C00004017091050180910601909107010E9438
:1009D000F00A6093040170930501809306019093DF
:1009E00007018FE291E00E941B038FE291E00E94D9
:1009F0001B038FE291E00E941B038FE291E00E94B3
:100A00001B038FE291E00E941B038FE291E00E94A2
:100A10001B038FE291E00E941B038FE291E00E9492
:100A20001B038FE291E00E941B038FE291E00E9482
:100A30001B038FE291E00E941B038FE291E00E9472
:100A40001B038091470190914801019690934801C2
:100A50008093470190E490937C0080917A008064B9
:100A600080937A0080917A0086FDFCCF9091780087
:100A70008091790089279827892720914501309115
:100A80004601820F931F9093460180934501609128
:100A90004701709148016E31710524F10E94090CE3
:100AA000072E000C880B990B0E949B0921E136E36D
:100AB0004CEB5DEB0E94FA092CEE31E94CEA53E471
:100AC0000E94F00A6093550170935601809357017C
:100AD00090935801109248011092470110924601DC
:100AE0001092450160915501709156018091570116
:100AF000909158018E010F5F1F4F22E044E00E9449
:100B00003F076C01009709F4EEC0FC010190002042
:100B1000E9F731977F01E81AF90AB7016F5F7F4F54
:100B200090E080E00E945C0D8C01009709F4E0C029
:100B3000DC011C92B6010E94220EA701B80189E5D2
:100B400091E00E944C010E94130380910401909156
:100B50000501A0910601B09107018AA39BA3ACA354
:100B6000BDA3409055015090560160905701709080
:100B700058012FB7F8946091490170914A01809112
:100B80004B0190914C012FBF0E9499094B015C01D0
:100B900020915101309152014091530150915401E3
:100BA0000E94EF0A6B017C018092510190925201E8
:100BB000A0925301B0925401A30192016AA17BA1BA
:100BC0008CA19DA10E94EF0A4B015C0120914D0177
:100BD00030914E0140914F01509150010E94EF0A17
:100BE000A70196010E945C0B2B013C0180924D01F4
:100BF00090924E01A0924F01B0925001A501940134
:100C0000C701B6010E94FA0920E030E0A9010E9464
:100C1000FA096B017C0120E030E040EA51E4C501B3
:100C2000B4010E94FA099B01AC01C701B6010E9400
:100C3000F00A6B017C0120E030E0A901C301B201A0
:100C40000E94FA099B01AC01C701B6010E94F00A9B
:100C50006B017C0120E030E0A9010E94040C181611
:100C60000CF0CDC020E030E04FE753E4C701B601FF
:100C70000E94940987FFC3C0C701B6010E94CE0B32
:100C80004B017B0161E086E00E94590281149104CE
:100C900091F580E035C0873579F420E030E040E020
:100CA0005FE36091040170910501809106019091CC
:100CB00007010E94EF0A8DCE853669F480E090E04E
:100CC000A5E9B3E48093040190930501A093060184
:100CD000B093070186CE823709F083CE80E090E0A2
:100CE000AAE9B3E4EFCFF12CE12C10E000E025CF2E
:100CF000F12CE12C22CF9FEF8916910421F481E0A1
:100D00000E94040127C0E4EAF1E08491833009F4F1
:100D10005CC050F48130D1F0823009F451C0F0E869
:100D2000EF16F10464F7B5CF873009F458C0883066
:100D300009F45DC0843099F78091800080628093CF
:100D4000800090928B0080928A0004C084B58068F5
:100D500084BD87BC0E948A024B015C0185E0C82EDD
:100D6000D12CE12CF12C0E948A02681979098A0998
:100D70009B09683E734081059105A8F321E0C21AE2
:100D8000D108E108F10888EE880E83E0981EA11CC6
:100D9000B11CC114D104E104F10429F701151105B6
:100DA00019F0C8010E94D30C2114310409F4F5CDC7
:100DB0000E94B601882309F4F0CD0E940000EDCD19
:100DC00084B5806284BD88BCC5CF80918000806876
:100DD000809380009092890080928800BBCF8091A0
:100DE000B00080688093B0008092B300B3CF809150
:100DF000B00080628093B0008092B400ABCF20E05E
:100E000030E04FE753E4C701B6010E94040C61E0F3
:100E1000181624F486E00E94590271CF86E00E94E1
:100E2000590237CFE9E5F1E01382128288EE93E0B0
:100E3000A0E0B0E084839583A683B78382E191E04C
:100E40009183808385EC90E09587848784EC90E0A3
:100E50009787868780EC90E0918B808B81EC90E087
:100E6000938B828B82EC90E0958B848B86EC90E068
:100E7000978B868B118E128E138E148E0895EF929F
:100E80000F931F93CF93DF93E80134E047FD34E1E4
:100E9000042E000C550B57FF03C051954195510985
:100EA000E32E022F242FAE010E945D07CE01DF91B9
:100EB000CF911F910F91EF900895A9E0B0E0E3E684
:100EC000F7E00C94BE0A6A01F22EB02E102FFBE35D
:100ED000AF2EA01608F41BE31F5F012F27E0AE0121
:100EE0004F5F5F4F0E94BC08BC018981982F9970A9
:100EF000913009F43FC09BE2E1FC04C09E2D91704B
:100F0000E0FC3AC05E2D5071E82FE87083FF46C0C8
:100F100084E0911101C083E0EF2DE81B8F1508F0EC
:100F2000E0E0D6018E2F20E2552351F1992329F0DC
:100F3000D6019C93C60101966C0196012D5F3F4F2F
:100F4000E2FE24C08EE4D6018C9391E411969C932A
:100F5000119712968C93D9018E2F90E281111BC0AC
:100F6000E20FF32FF11D10828EEF9FEF2996ECE038
:100F70000C94DA0A9DE2C6CF90E2C4CF2D93815043
:100F80008111FCCFCE0ED11CE0E0D0CF8EE6D60191
:100F90008C9391E6DBCF9D938150E0CF482F447036
:100FA00082FF3DC084E0911101C083E08F1510F4F1
:100FB000EF2DE81BD6018E2F20E2552309F199234E
:100FC00029F0D6019C93C60101966C0196012D5F14
:100FD0003F4FE2FE1BC089E4D6018C938EE411964C
:100FE0008C93119786E412968C93D9018E2F90E200
:100FF000882309F4B5CF9D938150FACF2D9381506A
:101000008111FCCFCE0ED11CE0E0D9CF89E6D6010C
:101010008C938EE611968C93119786E6E4CF9B0114
:1010200077FF02C030E020E0A1E0B0E0911102C003
:10103000B0E0A0E0F9013196AE0FBF1F8B2C912CD0
:10104000BB2009F461C05401EFEFAE1ABE0AAA0D2D
:10105000BB1DFA161B0619F014F04F2D4A1B511137
:1010600088C0E3FC59C07601A42FB0E2A1114FC0A3
:10107000C40ED11C992309F45BC040E0D60111963F
:10108000F60190836D01552309F448C0012F060F26
:101090009A81582F507184FF03C0913309F4015095
:1010A00010160CF047C0093008F008E0EEE2FE2E02
:1010B0005B01A01AB10885019194819491082F3F9A
:1010C000320729F4D601FC92F60131966F016217BE
:1010D000730794F1021713077CF5DB01A21BB30B16
:1010E000AA24A394B12CAC0EBD1EAA0DBB1D119653
:1010F0008C9121503109D601119628153905F4F04B
:10110000F60180836D01DBCFB12CA12CA0CFF701BC
:10111000B1937F01A150AACF9111B0CFD601942FE6
:1011200050E302C05D9391509111FCCFC40ED11CCD
:1011300040E0ACCF01E0BACF80E3DBCF62177307AA
:1011400031F4963388F4953311F4552369F0F601A0
:101150008083FD01842F90E2811108C0A40FB11D8E
:101160001C9290E080E002CF81E3F1CF9193815017
:10117000F3CF911183CF8ACF283008F027E03327AF
:10118000DA01990F311D87FD9160009661057105A7
:1011900039F432602E5F3D9330E32A95E1F70895EC
:1011A0009F3F30F080387105610509F03C5F3C5F7E
:1011B0003D93913008F08068911DDF93CF931F938A
:1011C0000F93FF92EF92192F987F9695E92F96959E
:1011D0009695E90FFF27EE53FF4F99273327EE240B
:1011E000FF24A701E70105900894079428F4360F1F
:1011F000E71EF81E491F511D660F771F881F991F94
:101200000694A1F70590079428F4E70EF81E491FED
:10121000561FC11D770F881F991F661F0694A1F7DF
:101220000590079428F4F80E491F561FC71FD11DBB
:10123000880F991F661F771F0694A1F705900794E2
:1012400020F4490F561FC71FD81F990F661F771F1D
:10125000881F0694A9F784911095177041F0D695D0
:10126000C79557954795F794E7941A95C1F7E8E61F
:10127000F0E06894159015913591659195910590E0
:101280007FE27395E118F10A430B560BC90BD009A5
:10129000C0F7E10CF11E431F561FC91FD01D7EF47D
:1012A000703311F48A95E6CFE894015030F0080FBE
:1012B0000AF40027021708F4202F2395022F7A330F
:1012C00028F079E37D932A95E9F710C07D932A955C
:1012D00089F6069497956795379517951794E118B1
:1012E000F10A430B560BC90BD00998F023957E9158
:1012F00073957A3308F070E37C932013B8F77E91EE
:1013000070617D9330F0839571E37D9370E32A954E
:10131000E1F71124EF90FF900F911F91CF91DF9192
:10132000992787FD909508950E94D60908F481E0D9
:101330000895E89409C097FB3EF4909580957095C8
:1013400061957F4F8F4F9F4F9923A9F0F92F96E911
:10135000BB279395F695879577956795B795F11186
:10136000F8CFFAF4BB0F11F460FF1BC06F5F7F4F23
:101370008F4F9F4F16C0882311F096E911C0772335
:1013800021F09EE8872F762F05C0662371F096E83E
:10139000862F70E060E02AF09A95660F771F881F0D
:1013A000DAF7880F9695879597F90895990F0008B1
:1013B000550FAA0BE0E8FEEF16161706E807F90727
:1013C000C0F012161306E407F50798F0621B730BC2
:1013D000840B950B39F40A2661F0232B242B252B43
:1013E00021F408950A2609F4A140A6958FEF811DE6
:1013F000811D08950E940D0A0C947E0A0E94700AB5
:1014000038F00E94770A20F0952311F00C94670AB7
:101410000C946D0A11240C94B20A0E948F0A70F386
:10142000959FC1F3950F50E0551F629FF001729F89
:10143000BB27F00DB11D639FAA27F00DB11DAA1F98
:10144000649F6627B00DA11D661F829F2227B00DE5
:10145000A11D621F739FB00DA11D621F839FA00D70
:10146000611D221F749F3327A00D611D231F849FC0
:10147000600D211D822F762F6A2F11249F57504017
:101480009AF0F1F088234AF0EE0FFF1FBB1F661F92
:10149000771F881F91505040A9F79E3F510580F05B
:1014A0000C94670A0C94B20A5F3FE4F3983ED4F3BD
:1014B000869577956795B795F795E7959F5FC1F7FF
:1014C000FE2B880F911D9695879597F9089597F9AA
:1014D0009F6780E870E060E008959FEF80EC0895DA
:1014E00000240A9416161706180609060895002403
:1014F0000A9412161306140605060895092E03947D
:10150000000C11F4882352F0BB0F40F4BF2B11F4F0
:1015100060FF04C06F5F7F4F8F4F9F4F089557FD4F
:101520009058440F551F59F05F3F71F04795880F51
:1015300097FB991F61F09F3F79F0879508951216E8
:1015400013061406551FF2CF4695F1DF08C0161694
:1015500017061806991FF1CF869571056105089445
:101560000895E894BB2766277727CB0197F908955C
:101570002F923F924F925F926F927F928F929F92A3
:10158000AF92BF92CF92DF92EF92FF920F931F9391
:10159000CF93DF93CDB7DEB7CA1BDB0B0FB6F89442
:1015A000DEBF0FBECDBF09942A88398848885F8482
:1015B0006E847D848C849B84AA84B984C884DF80F3
:1015C000EE80FD800C811B81AA81B981CE0FD11DD7
:1015D0000FB6F894DEBF0FBECDBFED010895505891
:1015E000BB27AA270E94070B0C947E0A0E94700A50
:1015F00038F00E94770A20F039F49F3F19F426F45E
:101600000C946D0A0EF4E095E7FB0C94670AE92F41
:101610000E948F0A58F3BA17620773078407950769
:1016200020F079F4A6F50C94B10A0EF4E0950B2E97
:10163000BA2FA02D0B01B90190010C01CA01A00124
:101640001124FF27591B99F0593F50F4503E68F17F
:101650001A16F040A22F232F342F4427585FF3CFC0
:10166000469537952795A795F0405395C9F77EF491
:101670001F16BA0B620B730B840BBAF09150A1F0DA
:10168000FF0FBB1F661F771F881FC2F70EC0BA0F60
:10169000621F731F841F48F4879577956795B795E8
:1016A000F7959E3F08F0B0CF9395880F08F09927E3
:1016B000EE0F9795879508950E94700B0C947E0A03
:1016C0000E94770A58F00E94700A40F029F45F3FA8
:1016D00029F00C94670A51110C94B20A0C946D0A0B
:1016E0000E948F0A68F39923B1F3552391F3951B58
:1016F000550BBB27AA2762177307840738F09F5F33
:101700005F4F220F331F441FAA1FA9F335D00E2E9F
:101710003AF0E0E832D091505040E695001CCAF70C
:101720002BD0FE2F29D0660F771F881FBB1F2617CF
:1017300037074807AB07B0E809F0BB0B802DBF01A6
:10174000FF2793585F4F3AF09E3F510578F00C9475
:10175000670A0C94B20A5F3FE4F3983ED4F386958F
:1017600077956795B795F7959F5FC9F7880F911D96
:101770009695879597F90895E1E0660F771F881F82
:10178000BB1F621773078407BA0720F0621B730B35
:10179000840BBA0BEE1F88F7E09508950E94D50BD5
:1017A0006894B1110C94B20A08950E94970A88F0C7
:1017B0009F5798F0B92F9927B751B0F0E1F0660F15
:1017C000771F881F991F1AF0BA95C9F714C0B13056
:1017D00091F00E94B10AB1E008950C94B10A672F0C
:1017E000782F8827B85F39F0B93FCCF38695779585
:1017F0006795B395D9F73EF490958095709561956E
:101800007F4F8F4F9F4F08950E94D60908F48FEFA6
:10181000089597FB072E16F4009407D077FD09D0A2
:101820000E941D0C07FC05D03EF4909581959F4FBA
:101830000895709561957F4F0895AA1BBB1B51E1D8
:1018400007C0AA1FBB1FA617B70710F0A61BB70B30
:10185000881F991F5A95A9F780959095BC01CD01D5
:101860000895EE0FFF1F0590F491E02D09940F935A
:101870001F93CF93DF938230910510F482E090E0C4
:10188000E091F801F091F90130E020E0B0E0A0E053
:10189000309799F42115310509F44AC0281B390BFA
:1018A00024303105D8F58A819B816115710589F154
:1018B000FB0193838283FE0111C04081518102812B
:1018C000138148175907E0F04817590799F4109702
:1018D00061F012960C93129713961C933296CF01D7
:1018E000DF91CF911F910F9108950093F80110930C
:1018F000F901F4CF2115310551F04217530738F0A3
:10190000A901DB019A01BD01DF01F801C1CFEF019F
:10191000F9CF9093F9018093F801CDCFFE01E20F4A
:10192000F31F819391932250310939832883D7CFB4
:101930002091F6013091F701232B41F420910A0107
:1019400030910B013093F7012093F60120910801AB
:10195000309109012115310541F42DB73EB7409171
:101960000C0150910D01241B350BE091F601F09113
:10197000F701E217F307A0F42E1B3F0B28173907D6
:1019800078F0AC014E5F5F4F2417350748F04E0FDB
:101990005F1F5093F7014093F601819391939FCF7E
:1019A000F0E0E0E09CCFCF93DF930097E9F0FC01FB
:1019B000329713821282A091F801B091F901ED01E2
:1019C00030E020E01097A1F420813181820F931F35
:1019D0002091F6013091F7012817390709F061C00D
:1019E000F093F701E093F601DF91CF910895EA01BA
:1019F000CE17DF07E8F54A815B819E01411551054D
:101A0000B1F7E901FB83EA8349915991C40FD51FCE
:101A1000EC17FD0761F4808191810296840F951F78
:101A2000E90199838883828193819B838A83F0E093
:101A3000E0E012968D919C9113970097B9F52D9146
:101A40003C911197CD010296820F931F2091F601D0
:101A50003091F7012817390739F6309751F5109270
:101A6000F9011092F801B093F701A093F601BCCFF1
:101A7000D383C28340815181840F951FC817D90732
:101A800061F44E5F5F4F88819981480F591F5183E0
:101A900040838A819B81938382832115310509F0DC
:101AA000B0CFF093F901E093F8019ECFFD01DC0186
:101AB000C0CF13821282D7CFB0E0A0E0E2E6FDE013
:101AC0000C94BA0A8C01009751F4CB010E94370C98
:101AD0008C01C801CDB7DEB7E0E10C94D60AFC0159
:101AE000E60FF71F9C0122503109E217F30708F4B3
:101AF0009DC0D901CD91DC911197C617D70798F0F9
:101B0000C530D10530F3CE0104978617970708F347
:101B1000C61BD70B2297C193D1936D937C93CF01B2
:101B20000E94D30CD6CF5B01AC1ABD0A4C018C0EBF
:101B30009D1EA091F801B091F901512C412CF12C7E
:101B4000E12C109731F58091F6019091F7018815FD
:101B5000990509F05CC04616570608F058C08091F8
:101B6000080190910901009741F48DB79EB740910B
:101B70000C0150910D01841B950BE817F90708F033
:101B800055C0F093F701E093F601F901718360838A
:101B9000A0CF8D919C91119712966C9012971396ED
:101BA0007C901397A815B90559F56C0142E0C40E55
:101BB000D11CCA14DB0420F1AC014A195B09DA011B
:101BC0001296159780F06282738251834083D90107
:101BD0006D937C93E114F10471F0D7011396FC939B
:101BE000EE93129776CF22968C0F9D1FF901918369
:101BF0008083F301EFCFF093F901E093F80169CF0F
:101C00004816590608F42C017D01D3019ACFCB0167
:101C10000E94370C7C01009749F0AE01B8010E9488
:101C2000190EC8010E94D30C870153CF10E000E0C9
:101C300050CFFB01DC0102C001900D924150504099
:101C4000D8F70895FB01DC0101900D920020E1F727
:061C50000895F894FFCF97
:101C5600AF02AF02008097430000FA018000000047
:101C66000000EC014C0179013902AA0188019C01AE
:101C76000D0A0048656C6C6F20576F726C640031FA
:081C8600303030303030300006
:00000001FF
